:100000000C9449060C9466060C9466060C94952F85
:100010000C9466060C9466060C9466060C946606B0
:100020000C9466060C9466060C94D0190C948C19EA
:100030000C9459250C9466060C9466060C9466067E
:100040000C9466060C9466060C9466060C94660680
:100050000C9466060C94A91A0C9466060C94660619
:100060000C9466060C9466060C9466060C94660660
:100070000C9466060C9466060C9466060C94660650
:100080000C9466060C9466060C9466060C94660640
:100090000C9466060C9466060C9466060C94660630
:1000A0000C9466060C9466060C946606050109021B
:1000B000A10185020901A1000509190129081500FE
:1000C0002501950875018102050109300931158165
:1000D000257F95027508810609381581257F9501D0
:1000E00075088106050C0A38021581257F95017572
:1000F000088106C0C00660FF0961A1010962150000
:1001000026FF009520750881020963150026FF006F
:10011000952075089102C005010906A1010507197E
:10012000E029E71500250195087501810295017503
:100130000881010507190029FF150026FF00950613
:1001400075088100050819012905950575019102B9
:10015000950175039101C00000000000000000003F
:10016000000000000000000000000000000000008F
:1001700000000000000000000000007E0F00D4FF1F
:10018000FFFFC70000007800000000000000002A08
:100190002B2800000000000000000000000000000C
:1001A000000029000000002C1E34202122243426C7
:1001B00027252E362D3738271E1F202122232425C0
:1001C000263333362E37381F0405060708090A0B75
:1001D0000C0D0E0F101112131415161718191A1BE7
:1001E0001C1D2F3130232D350405060708090A0B85
:1001F0000C0D0E0F101112131415161718191A1BC7
:100200001C1D2F3130354C00DA0281FFD9F1DB2083
:10021000A4A62EAF00A0C000A1C800AED580A81F24
:10022000D300408D1420006162636465666768696D
:100230006A6B6C6D6E6F70717273747576777879A6
:100240007A31323334353637383930524542545F9B
:100250002D3D5B5D5C233B27602C2E2F202027004B
:10026000204B00202043004B6579203A202052008B
:100270002020440030302020530020202020204324
:1002800050490042616C6C3A0020204E4F4E4500B0
:10029000202053574950494E47002020535749507A
:1002A00045002020434C49434B4544002020434C0B
:1002B00049434B494E47002020434C49434B414260
:1002C0004C4500202057414954494E47004C617924
:1002D00065723A00808182838485868788898A8BCB
:1002E0008C8D8E8F9091929394A0A1A2A3A4A5A689
:1002F000A7A8A9AAABACADAEAFB0B1B2B3B4C0C100
:10030000C2C3C4C5C6C7C8C9CACBCCCDCECFD0D155
:10031000D2D3D40000010101010101010101020257
:1003200002020202020202030303030303030304A3
:10033000040404040404050505050506060606066E
:10034000070707070708080808090909090A0A0A28
:100350000B0B0B0C0C0C0D0D0D0E0E0E0F0F0F10CA
:100360001011111112121313141415151616171754
:10037000181819191A1A1B1B1C1D1D1E1E1F2020C0
:10038000212222232424252626272829292A2B2C0A
:100390002D2D2E2F30313232333435363738393A2D
:1003A0003B3C3D3E3F404142434445464748494A25
:1003B0004C4D4E4F50515354555658595A5B5D5EF3
:1003C0005F616264656668696B6C6D6F707273758E
:1003D00077787A7B7D7E8082838587888A8C8E8FF2
:1003E00091939596989A9C9EA0A2A3A5A7A9ABAD20
:1003F000AFB1B3B5B7BABCBEC0C2C4C6C9CBCDCF0E
:10040000D1D4D6D8DBDDDFE2E4E7E9EBEEF0F3F5BB
:10041000F8FAFDFF00AF00AE2B69040008001500DC
:10042000170000001A001600070009000A0000006B
:100430001B00190006001D4205430000916268641C
:1004400029412C6869611400130012000C00180087
:100450001C0000002D000F000E000D000B0000001E
:1004600038003700360010001100000090410100F4
:100470000100010028002A00010004080100010019
:10048000010000000100010050004F002C0000009E
:1004900001000100010050014F01000001000100B6
:1004A0000100010001000100010073007200010061
:1004B0000100000001001908520051000100000075
:1004C000380801001B0806081D0800000100010093
:1004D00001000100010001000100010001003600DF
:1004E000630000000100010050004F002C000000DC
:1004F00001000100010001000100000001000100F5
:100500000100010001000100530026002500240025
:1005100029000000570023002200210054000000A1
:10052000550020001F001E005600000001000100C1
:10053000010001002700010035001F0220022102F6
:10054000220200000100010050004F002C000000BA
:10055000B35DB45DB95DBA5D01000000010001004A
:1005600001000100C25C005C250227022602240271
:10057000230200002E0030002F0034001E02000075
:100580003100010001000100330000000100010002
:100590000100010001000100010001000100010053
:1005A0000100000001000100010001000100000045
:1005B0000100010001000100010000000100010034
:1005C0000100010001000100010001000100010023
:1005D0000100000001000100010001000100000015
:1005E0000100010001000100010000000100010004
:1005F00001000100010001000100010001000100F3
:1006000001000000010001000100010001000000E4
:1006100001000100010001000100000001000100D3
:1006200001000100010001000100010001000100C2
:1006300001000000010001000100010001000000B4
:1006400001000100010001000100000001000100A3
:100650000100010001000100010001000100010092
:100660000100000001000100010001000100000084
:100670000100010001000100010000000100010073
:100680000100010001000100010001000100010062
:10069000010000000100F500F600F4000100000078
:1006A0000100010001000100010000000100010043
:1006B000010001000100010009025B00030100A02C
:1006C000FA090400000103010100092111010001E0
:1006D000224000070581030800010904010002030C
:1006E00000000009211101000122220007058203F8
:1006F0002000010705030320000109040200010393
:1007000000000009211101000122490007058403AE
:1007100020000112010002000000085759000201E8
:10072000000102000114034B0065007900620061C2
:10073000006C006C00330039000000100359006F9A
:100740000077006B0065006500730000000403097A
:10075000040000000000003E5B4F5B3E003E6B4F1C
:100760006B3E001C3E7C3E1C00183C7E3C18001C6E
:10077000577D571C001C5E7F5E1C0000183C180053
:1007800000FFE7C3E7FF00001824180000FFE7DBC5
:10079000E7FF0030483A060E002629792926004056
:1007A0007F05050700407F05253F005A3CE73C5A7E
:1007B000007F3E1C1C0800081C1C3E7F0014227F8A
:1007C0002214005F5F005F5F0006097F017F000069
:1007D0006689956A0060606060600094A2FFA294E0
:1007E0000008047E04080010207E20100008082A5B
:1007F0001C0800081C2A0808001E10101010000C0D
:100800001E0C1E0C0030383E383000060E3E0E0620
:100810000000000000000000005F00000000070072
:10082000070000147F147F1400242A7F2A1200235B
:100830001308646200364956205000000807030080
:1008400000001C224100000041221C00002A1C7FE5
:100850001C2A0008083E08080000807030000008CC
:10086000080808080000006060000020100804026A
:10087000003E5149453E0000427F40000072494918
:100880004946002141494D33001814127F100027BA
:1008900045454539003C4A49493100412111090784
:1008A00000364949493600464949291E00000014CE
:1008B0000000000040340000000008142241001431
:1008C00014141414000041221408000201590906EE
:1008D000003E415D594E007C1211127C007F494957
:1008E0004936003E41414122007F4141413E007F67
:1008F00049494941007F09090901003E41415173BD
:10090000007F0808087F0000417F4100002040412F
:100910003F01007F08142241007F40404040007F9B
:10092000021C027F007F0408107F003E4141413ECF
:10093000007F09090906003E4151215E007F091927
:1009400029460026494949320003017F0103003F3F
:100950004040403F001F2040201F003F4038403FA4
:100960000063140814630003047804030061594908
:100970004D4300007F414141000204081020000067
:100980004141417F000402010204004040404040D8
:10099000000003070800002054547840007F2844DA
:1009A000443800384444442800384444287F003800
:1009B000545454180000087E0902001824241C789E
:1009C000007F080404780000447D4000002040407F
:1009D0003D00007F102844000000417F4000007C63
:1009E00004780478007C08040478003844444438CF
:1009F000007C1824241800182424187C007C080487
:100A000004080048545454240004043F4424003C87
:100A10004040207C001C2040201C003C4030403CDA
:100A2000004428102844004C9090907C004464546A
:100A30004C44000008364100000000770000000030
:100A400041360800000201020402003C2623263C35
:100A50000000000000000000000000000000000096
:100A6000000000000000000000C0F0F88C86C6E71F
:100A7000FFFFFFFFFFFFFEFCFCF8E080000000F03E
:100A8000F0F00000C0E0F070700000000000000016
:100A9000000000000000000000000000000000F85E
:100AA000F8F8000000000000000000000000000056
:100AB0000000000000F8F8F80000F8F8F800000066
:100AC000000000000000000000000000000000E046
:100AD000F0F0F0E0ECEEF7F37020007C7C7C7E0020
:100AE0007E7E7E7F7F7F000080C0E07E5B4F5BFE6E
:100AF000C00000C000DCD7DEDEDED7DC00C00000B6
:100B000000000000000000000000000000000000E5
:100B100000000000000000000000000000000000D5
:100B2000000080E07078686C64C7C7C7C7C7C7E7B4
:100B30003F1F0F3FFFFFFFFFFFFF3F0F000000FFC2
:100B4000FFFF1E3FFFF3E1800000F8FCFE36363663
:100B50003EBCB8000E3EFEF080F0FE3E0E0000FFF0
:100B6000FFFF060606FEFEFC7000E6F6F63636FED1
:100B7000FEFC000000FFFFFF0000FFFFFF00000081
:100B80000000000000000000000000000000000F56
:100B90001F3F7F7F7F7F7F3F1E0C001F1F1F3F0077
:100BA0003F3F3F7F7F7F00307B7F78302020307851
:100BB0007F3B0003000F7F0F0F0F7F0F000300002C
:100BC0000000000000000000000000000000000025
:100BD0000000000000000000000000000000000015
:100BE000003C7F6360E0C0C0C0C0C0C0C0C0FFFFA9
:100BF000C06030180F030303010000000000000371
:100C000003030000000303030300010303030303C2
:100C1000030301007070393F1F070100000000014D
:100C2000030303030303030100000103030303039E
:100C3000030100000003030300000303030000009E
:100C400000000000000000000000000000000000A4
:100C50000000000000000000000000000000000094
:100C60000000000000000000000000000000000084
:100C70000000000000000000000000000000000074
:100C80000000000000000000000000000000000064
:100C9000000011241FBECFEFDAE0DEBFCDBF11E0B0
:100CA000A0E0B1E0E0EDF3E602C005900D92A23ABB
:100CB000B107D9F725E0A2EAB1E001C01D92A83D35
:100CC000B207E1F70E9480250C94AC310C9400002F
:100CD000E8EDF0E080818E7F80831092E200109238
:100CE000DA001092E100A0EEB0E08C9181608C936C
:100CF00080818F77808319BCA7EDB0E08C918E7FC7
:100D00008C9380818F7E8083109290030895209130
:100D1000E4003091E50095E6A9012091EC00822FD6
:100D2000817020FF06C08091E80080FF06C080E04F
:100D300008952091E80022FD1AC080919E03882327
:100D400089F0853089F08091EB0085FD0FC02091FE
:100D5000E4003091E50042175307F9F29150E1F6B3
:100D600084E0089582E0089583E0089581E0089585
:100D7000EF92FF920F931F93CF937C018B010E9400
:100D80008706C82F811117C08091E80085FD0BC030
:100D90008091E8008E778093E8000E948706882380
:100DA00099F3C82F08C0F70181917F018093F1006A
:100DB0000150110949F78C2FCF911F910F91FF908E
:100DC000EF9008958091A00387FF13C08091E80001
:100DD00082FF06C08091E8008B778093E80004C012
:100DE00080919E038111F2CF089580919E03882304
:100DF000D9F38091E80080FFF8CF8091E8008E77EA
:100E0000ECCF982F9093E900242F762F50E089178C
:100E100031F07091EC002091ED005091F00021FD37
:100E200007C09F5F973071F78093E90081E00895D4
:100E30003091EB003E7F3093EB003091ED003D7F31
:100E40003093ED003091EB0031603093EB00709304
:100E5000EC002093ED005093F0002091EE0027FD70
:100E6000E0CF80E00895B0E0A0E0E9E3F7E00C9483
:100E7000CF30C8EDD0E088818F7E8883E7EDF0E049
:100E800080818160808384E082BF81E080939003D1
:100E900088818E7F888302EE10E0F8011082109224
:100EA000DA0081EEC82ED12CF601108288818F776E
:100EB000888388818068888388818F7D888319BC36
:100EC00010929E0310929F0310929D0310929C0318
:100ED00090EEE92EF12CF70180818B7F8083888151
:100EE0008160888342E060E080E00E940107F601B3
:100EF00080818E7F8083F801808181608083808102
:100F000088608083F70180818E7F80838881806103
:100F10008883CDB7DEB7E8E00C94EB30FC0180911C
:100F2000A6039091A70386179707A0F06115710596
:100F300029F49091E8009E779093E80090E0611585
:100F4000710551F4911108C08091E80082FF34C00E
:100F500080E00895BC01F2CF80919E038823C1F107
:100F60008530C1F18091E80083FD30C08091E800B8
:100F700082FDEACF8091E80080FFE1CF8091F3000D
:100F80002091F200382F6115710519F028303105D4
:100F900058F091E02830310509F090E02091E80008
:100FA0002E772093E800CBCF81918093F1006150A0
:100FB00071092F5F3F4FE7CF80919E03882341F057
:100FC000853041F08091E80083FFBECF81E0089535
:100FD00082E0089583E0089508950895089580912A
:100FE0009303089587E797E790930108809300089B
:100FF00088E19AE00FB6F894A895809360000FBE40
:1010000090936000FFCF2FB7F89460918C0370919C
:101010008D0380918E0390918F032FBF0895FC0163
:10102000680F791F8FEF91E32191822728E030E04C
:1010300087FF09C0880F892721503109C9F7E617B2
:10104000F70791F70895880FF7CFFA01811101C0D2
:10105000FB010995089580917E03982F9E7F71F47E
:1010600080917E038170826080937E0380918103F2
:10107000873918F086E9809381030895843080F7DA
:10108000F5CFCF93DF93E9EAF3E083819481A581E3
:10109000B681E90188839983AA83BB831482138272
:1010A00016821582DF91CF91089580E0089563E064
:1010B00070E08AE292E00E940F0890912902891361
:1010C00018C0E0912A02EB30A4F488E0E802F001B5
:1010D0001124EF5FFE4F0680F781E02D309749F035
:1010E0002DE432E040912C026DE272E080912B02FF
:1010F00009950895E1E0F1E0A8E1B2E053968C9102
:10110000539780A754968C9183AF0895F894E82F55
:10111000E295EF70F0E031A1282F2F7081E090E090
:1011200001C0880F2A95EAF7982F9095932391A3F1
:1011300092A1892B82A37894089590918C0292FFBA
:1011400006C0282F28712830F9F4877F846093FF28
:1011500006C0282F28712831F1F4877E8461209100
:101160008D0220FF06C0382F38713830D9F4877FC0
:10117000816021FF06C0282F28712831D1F4877E95
:10118000816194FD877E0895282F24712430F9F61B
:101190008B7F8860DCCF282F2471243101F78B7E70
:1011A0008861DDCF382F3171313019F78E7F88603B
:1011B000E0CF282F2171213121F78E7E8861E1CF88
:1011C000CF93DF93EC018238910589F1E0F581330B
:1011D000910509F499C028F58932910509F489C06F
:1011E0008A9709F498C0C11522E5D20708F0AEC06D
:1011F000C11531E5D30708F0FDC0C11540E2D407A1
:1012000008F097C0C11581E0D80758F5C53AD10557
:1012100008F088C0C430D10520F5C130D10509F1EE
:1012200045C08533910509F45FC0C997E1F6809107
:101230008C02837009F00DC180918D0283FF11C073
:10124000C9E2D0E00EC0833E910599F170F4803E72
:10125000910501F1823E910531F680918C0282FD6B
:1012600021C0CE01DF91CF910895863E910561F1B5
:10127000873E910571F1843E910509F0B4CF8091CC
:101280008D0281FFEECF80918C02C7EED0E084FD0D
:101290000DC0E7CF80918C0280FD33C090918D020C
:1012A00090FFDFCFC3EED0E084FFDBCFD0E0C0E023
:1012B000D8CF80918C0282FDC9C090918D0290FDA3
:1012C000C8C084FFCECFF2CF80918C0283FDDDCFEA
:1012D000C8CF80918C0283FDBFC090918D0291FF99
:1012E000F0CFC4EED0E0BDCF80918C0285FFB9CFA6
:1012F000A7CF80918C0285FDB2C080918D0283FFC3
:10130000B0CFC9E3D0E0ADCF80918C0286FFA9CFEA
:10131000CAE2D0E0A6CF80918C0286FFA2CFC1E3C3
:10132000D0E09FCFCE01815E9109079708F499CF55
:10133000BDCFC11520E4D20708F4B8CFC11530E500
:10134000D30708F043C0DF70D06A8BCFC11549E5E1
:10135000D40718F5C11588E5D80708F064C0C11591
:1013600023E5D20708F44BC0C11534E5D30708F0D4
:101370009DCFCE018370992721E030E002C0220F7B
:10138000331F8A95E2F7C695C69540E2C49FE001F7
:101390001124C22BD32BDA6864CFC1154AE5D407D8
:1013A00008F446C0CE0190568115904208F07ECFD9
:1013B0008D2F8F710E949D0890E0982F8827882795
:1013C0009F719C012C2BE901D0624BCFCE01837021
:1013D000992721E030E002C0220F331F8A95E2F7FF
:1013E000C695C69540E2C49FE0011124C22BD32BC1
:1013F000DD6837CFDC2FCC27C16FD06A32CFCE016A
:101400008370992721E030E002C0220F331F8A95B4
:10141000E2F7C695C69580E2C89FE0011124C22B71
:10142000D32BDC681ECFDC2FCC27C06FD06A19CF3E
:101430008C2F8F700E949D0834E0D695C7953A9501
:10144000E1F7CF709C2FEC01D0690BCFC2EED0E05A
:1014500008CFC0EED0E005CFC6EED0E002CFC5E3A6
:10146000D0E0FFCE809102029091D101981301C08B
:1014700008958F5F8770FACF292F983078F58630DE
:1014800068F590E036E0239F800D911D1124682FB0
:10149000677023E0969587952A95E1F7FC01EE0F9A
:1014A000FF1FE80FF91FE754FE4F50E040E080E0D7
:1014B000219130E0062E02C0369527950A94E2F776
:1014C00021703327042E01C0220F0A94EAF7822BE1
:1014D0004F5F5F4F4330510559F7089580E00895FD
:1014E000292F983098F5863088F590E036E0239FD4
:1014F000800D911D1124282F277041E001C0440F59
:101500002A95EAF723E0969587952A95E1F7FC015D
:10151000EE0FFF1FE80FF91FE754FE4F30E020E009
:1015200070E05191DF011197CB01022E02C0969518
:1015300087950A94E2F78170819585278423852712
:101540008C932F5F3F4F2330310559F70895982F23
:1015500092959F7011F0892F94E0282F269526955B
:1015600011F09E5F822F869509F09F5F892F089565
:10157000CF93C82F8091B6038C1751F00E940308B7
:101580006093B7037093B8038093B9039093BA0341
:10159000C093B603CF910895CF93C82F0E94A70A96
:1015A000833059F091E0853009F090E0892F817007
:1015B0000E94B80A8C2FCF91089581E0F8CFB0E057
:1015C000A0E0E5EEFAE00C94CF30FC01EB01909145
:1015D000BB03911101C094E06081718191509B0126
:1015E000092E02C0359527950A94E2F7D901092EF4
:1015F00002C0AA0FBB1F0A94E2F76A1B7B0B718320
:101600006083628173818B01092E02C01595079555
:101610000A94E2F7D80102C0AA0FBB1F9A95E2F71D
:101620006A1B7B0B7383628381E80138BFEF1B0762
:101630002CF0802F003811050CF08FE78D832138B6
:101640009FEF390754F1203831054CF5922F9195D1
:101650009C83442319F081958D832C830E94030879
:101660002D81211103C02C812223D9F06093BC036A
:101670007093BD038093BE039093BF038091C0031A
:101680009BE0980F973120F4080F0093C0031D8250
:10169000CDB7DEB7E8E00C94EB3021E8D7CF2FE7E9
:1016A000D5CFC090BC03D090BD03E090BE03F090B6
:1016B000BF036C197D098E099F0964367105810588
:1016C0009105E0F21092C003D9CFFC01DB01228129
:1016D000338191E821388FEF38072CF0922F203892
:1016E00031050CF09FE712969C931297208131816F
:1016F00021388FEF3807A4F0203831059CF4139679
:101700002C931397442339F0919512969C9312973A
:10171000219513962C9311821082138212820895C0
:1017200021E8EDCF2FE7EBCF382F20E287FF02C073
:1017300031952DE24AE0832F642F0E940831905D9D
:101740009093AF0181110BC02093AE0120E2209352
:10175000AD0120E22093AC018CEA91E00895642F62
:101760000E940831905D9093AE01832F64E60E9441
:101770000831882361F3805D8093AD01EBCF9C013C
:10178000860F971F37FD07C077FD04C097FF02C083
:101790008FEF9FE7089577FFFDCF97FDFBCF80E0A8
:1017A00090E80895CF93DF93682F81E06A3019F0B5
:1017B0006D3031F480E00E94600CDF91CF9108958C
:1017C0008091D4059091D50526E0FC01AEECB5E002
:1017D00001900D922A95E1F7603E08F458C026E08A
:1017E000FC0111922A95E9F7C091D405D091D50555
:1017F00046E050E0BE018EEC95E00E944E319E0125
:101800002E5C3340892B41F1C90145E096958795BF
:101810004A95E1F741E050E0BA0102C0660F771F38
:101820008A95E2F7CB016091CC037091CD03862BB2
:10183000972BB9016B5F7F4FE5E076956795EA9549
:10184000E1F702C0440F551F6A95E2F7842B952BF0
:101850009093CD038093CC032A5F3F4F4091CB03FD
:10186000642F70E0C9010E94B130481B463010F46B
:10187000240F311D211572E0370710F030E020E011
:1018800022533C4F3093D5052093D40596CFF6E0F4
:101890006F9FB00111246F5A784F46E050E00E94CC
:1018A0004531A2CFCF93DF93EC01FE0184918111EA
:1018B00003C0DF91CF9108950E94D20B2196F5CFFE
:1018C000CF93382FE091D405F091D505EE5CF3402D
:1018D0002091CB03622F70E0CF010E94B130281B12
:1018E000822F332361F066E00E94FC30C82FC15084
:1018F00010F4CF91089580E20E94D20BF8CF9F019F
:10190000280F311D2115324018F080E0F0E0E0E0B2
:101910008E0F9F2F911D82539C4F9093D5058093DE
:10192000D405E7CF0E94520C81E00E94600C08951C
:101930008091910390910B02892B8093A40148E040
:1019400050E063E072E084EA91E00E944E31892B1E
:10195000A9F088E0E4EAF1E0A3E0B2E001900D92A2
:101960008A95E1F7E0918903F0918A03309731F08D
:101970000280F381E02D84EA91E009950895E6EA7A
:10198000F1E086E0DF011D928A95E9F710920B02E3
:101990000E94980C0895AAE2B0E0E1EDFCE00C94FE
:1019A000D43080EA93E02091F100DC012D93CD0149
:1019B000B3E0883A9B07B9F78091A103833009F41B
:1019C00072C0B8F4813009F449C0823009F4B5C05E
:1019D0008091E80083FF8DC28091A0039091A103C4
:1019E0009A3008F086C2E92FF0E0E255FE4C0C94E4
:1019F00038318A3009F490C08B3009F471C08930D5
:101A000039F78091A003813219F78091A403909156
:101A1000A503009711F00297D9F68091E800877F1F
:101A20008093E8008091E80082FF38C09091F30035
:101A30008091F200029731F48091F100813011F031
:101A4000863021F48091F100809393038091E80027
:101A50008B778093E8000E94E206BACF8091A003C2
:101A6000813A09F0B5CF8091E800877F8093E80044
:101A70008091A4039091A503892B61F468E084E927
:101A800093E070E00E948E078091E8008B7780934E
:101A9000E8009ECF60E090E080E0F3CF80919E036D
:101AA0008111C0CF95CF8091A003813A09F090CFEA
:101AB0008091A4039091A503892B09F089CF80918F
:101AC000E800877F8093E8008091E80080FFFCCFEA
:101AD00080916D018093F1008091E8008E77B9CFFD
:101AE0008091A003813209F073CF8091A40390917B
:101AF000A503892B09F06CCF8091E800877F809344
:101B0000E8000E94E2068091A20380936D0110928A
:101B100091030E94BF0C5CCF8091A003813209F039
:101B200057CF8091E800877F8093E8000E94E2060B
:101B30008091A303809392034BCF8091A003813ABD
:101B400009F046CF8091E800877F8093E80080917C
:101B5000E80080FFFCCF80919203BCCF803899F0E1
:101B6000823809F0C6C18091A4038F70873008F0D5
:101B7000C0C18093E9008091EB0085FB882780F944
:101B80001092E90006C080919C0390919D039111F1
:101B900082609091E800977F9093E8008093F10035
:101BA0001092F1008091E8008E779FC1882309F49C
:101BB0008DC1823009F09DC18091A203811190C135
:101BC0008091A4038F702FEF280F263008F091C169
:101BD0008093E9002091EB0020FF82C1933031F423
:101BE0008091EB0080628093EB007AC19091EB00D2
:101BF00090619093EB0021E030E001C0220F8A95C4
:101C0000EAF72093EA001092EA008091EB008860E6
:101C1000EACF81116EC11091A2031F778091E3007A
:101C20008078812B8093E3008091E800877F809308
:101C3000E8000E94E2068091E80080FFFCCF8091DE
:101C4000E30080688093E30082E0111183E08093D9
:101C50009E034FC18058823008F04BC12091A203EF
:101C60003091A3032C3DE3E03E07A1F583E08A8396
:101C70008AE289834FB7F894DE01139620E03EE0B4
:101C800051E2E32FF0E050935700E49120FF03C0AE
:101C9000E295EF703F5FEF708E2F90E0EA30C0F07A
:101CA000C7968D939D932F5F243159F74FBF809135
:101CB000E800877F8093E8006AE270E0CE01019639
:101CC0000E948E078091E8008B778093E80011C115
:101CD000C096E7CF8091A4039091A503432F552789
:101CE0004330510509F44AC078F54130510509F4F3
:101CF0007AC08BE590E0E8EBF6E04230510509F060
:101D0000F8C02091E800277F2093E8002091A603E7
:101D10003091A7038217930708F49C0140E0211536
:101D2000310509F065C0411163C08091E80082FD72
:101D3000C9CF80919E03882329F2853019F28091C2
:101D4000E80083FFF2CFBECF4132510509F43CC019
:101D50004232510509F0CDC08330910508F0C9C069
:101D6000FC01EE0FFF1FEB56FE4F0190F081E02DBE
:101D70008E569E4FDC018C9190E01AC033272130A3
:101D80003105D1F02115310561F02230310509F01E
:101D9000B0C0E5E2F7E0E4918E2F90E0E5E2F7E0F5
:101DA00007C0EDE4F7E0E4918E2F90E0EDE4F7E07A
:101DB000009709F49EC0A5CFEBE3F7E0E4918E2FE6
:101DC00090E0EBE3F7E0F4CF8330910508F091C0A9
:101DD000880F991FFC01E556FE4F0190F081E02D20
:101DE00089E090E08ECF82E190E0E3E1F7E089CFF7
:101DF00080919E03882309F465CF853009F462CF72
:101E00008091E80083FD5ECF8091E80082FD8DCF58
:101E10008091E80080FF83CF9091F3008091F200E1
:101E20002115310519F08830910550F041E00897EF
:101E300009F040E08091E8008E778093E8006FCF52
:101E400044914093F1003196215031090196E8CF39
:101E5000803809F04EC08091E800877F8093E800C9
:101E600080919F038093F1009DCE811142C010911B
:101E7000A2031230F0F58091E800877F8093E8009C
:101E800010939F030E94E206112311F084E005C025
:101E90008091E30087FDFACF81E080939E0342E0CA
:101EA00061EC81E00E94010742E261EC84E00E9463
:101EB000010742E261EC82E00E94010742E260EC2D
:101EC00083E00E94010780919E0313C08091A203CA
:101ED000813079F481E0933009F080E080939D03B4
:101EE0001092E9008091E800877F8093E8000E94CB
:101EF000E2068091E80083FF0AC08091E800877FB6
:101F00008093E8008091EB0080628093EB00AA96BA
:101F1000E3E00C94F0300E94CC0A8093A803109266
:101F20000B020E94980C08958091A803982F967038
:101F3000963021F488600E948B0F0895877FFBCF35
:101F400021E030E001C0220F8A95EAF720958091C8
:101F5000A80382230E948B0F08951092DE0286E070
:101F60000E94A00F089521E030E001C0220F8A9561
:101F7000EAF78091A803822B0E948B0F089580932B
:101F80000C0210920B020E94980C0895882341F0D5
:101F90008095909191038923809391030E94980CDE
:101FA0000895882339F090919103982B9093910391
:101FB0000E94980C0895882309F443C09CEF980F61
:101FC000913A80F4E6EAF1E02CEA31E0919189134C
:101FD00003C0DF0111971C922E173F07B9F70E942B
:101FE000980C089590E2980F983088F4877021E05B
:101FF00030E0A90102C0440F551F8A95E2F7CA01DB
:10200000809590919103892380939103E8CF9BE57C
:10201000980F9330B8F48091B5019091B601892B57
:1020200081F01092B6011092B501E0918903F09110
:102030008A03309731F00680F781E02D90E080E050
:1020400009950895885A8731E0F78091B7019091FA
:10205000B801892BB1F31092B8011092B701E09149
:102060008903F0918A03309761F30084F185E02DB4
:10207000E5CF0F931F93CF93C82F882339F18CEFAF
:102080008C0F813AB0F506EA11E0F8018191C8178A
:1020900009F181E0EC3AF807C9F7EFEF80E0D801E9
:1020A0009D918D01C91781F0EF3F19F4911101C085
:1020B000E82F8F5F863099F7EF3F31F00E2E000C3E
:1020C000FF0BEC55FE4FC2830E94980CCF911F91DD
:1020D0000F910895E6EAF1E08191C81303C0DF0192
:1020E00011971C92A1E0EC3AFA07B1F70E94980C04
:1020F000D4CF80E28C0F883048F7C77021E030E001
:1021000001C0220FCA95EAF780919103822B809338
:102110009103DACF0F931F93CF93DF93EC01FC0170
:1021200001900020E9F78F0101501109C017D10774
:1021300028F0DF91CF911F910F91089589910E940E
:10214000D20BF4CFB0E0A0E0E8EAF0E10C94CF309D
:102150006C017B0164E670E088E70E940F2EEC01C1
:1021600097FD12C010E000E0F601E00FF11F84912E
:1021700064E670E00E947B2EEC01892B29F40F5F4E
:102180001F4F0E151F0581F70E94F12ECE01CDB70E
:10219000DEB7E8E00C94EB308091870390918803E0
:1021A000911103C091E089270895882369F062E0C6
:1021B00070E086E194E00E94A210892B19F08091D2
:1021C000870308951092870380918703EBCFCF9305
:1021D000C0918703809188038823D1F00E9403086F
:1021E000605A75418F4F9F4F6093830370938403B0
:1021F0008093850390938603C11108C062E070E06C
:1022000084E194E00E94A210892B29F0C0918703F9
:102210008C2FCF91089581E080938703F7CF9C01A5
:1022200084E08093E9009FEF8091E800915085FD64
:1022300006C085ED8A95F1F700009111F5CF8091E8
:10224000E80085FF0CC050E040E066E070E0C901A6
:102250000E94B8068091E8008E778093E800089588
:10226000CF93DF93EC0181E08093E9008FEF9091B1
:10227000E800815095FD06C095ED9A95F1F70000B4
:102280008111F5CF8091E80085FF14C050E040E057
:1022900068E070E0CE010E94B8068091E8008E7779
:1022A0008093E80088E0FE01A4E9B3E001900D927C
:1022B0008A95E1F7DF91CF91089560916F01809148
:1022C0007E0380FF20C080916E0143E0849FC001A7
:1022D000112482519D4F539A2BB1277F3BB1386017
:1022E0005FB7F894FC01649FE00DF11D1124BF015C
:1022F00068177907D1F45FBF8FE594E00197F1F794
:1023000000C000000895809170019091710123E058
:10231000829FF0011124E251FD4F8917A0F611822E
:10232000108212828F5F3396F8CFFC014191CF016A
:10233000E8E03BB9000000C047FF2BB9440F0000A4
:1023400000C000C000C02BB900C0EA9591F7D0CF03
:10235000EEE7F3E080818E7F8083EBEEF2E0828116
:10236000816082832FEF80E792E02150804090408F
:10237000E1F700C000000E945D110895B0E0A0E008
:10238000E4ECF1E10C94CD307C015B016A018091B9
:102390007D0201E010E08A3010F40AE010E0C1E0B4
:1023A000D0E0B501C701F6010995811104C021965D
:1023B0000C171D072CF4CDB7DEB7EAE00C94E9301A
:1023C000CC9F9001CD9F300D300D112490E080E026
:1023D00045E34A95F1F70000019682179307C1F78C
:1023E000E0CF80911702811119C082E390E0209123
:1023F000E30027FD10C0EFE3FCE93197F1F700C0DF
:1024000000000197A1F782E0809317020E946806FE
:1024100010929E0303C081E08093170281E09091A7
:102420001702913011F080E0089508950E94F11193
:10243000882359F0E0918903F0918A03309729F0BD
:102440000190F081E02D0995089580E00895259888
:102450002D9A869A8E9885E08A95F1F7000083B1CF
:1024600086988E9A90EA9A95F1F790E025E09595F6
:1024700087952A95E1F78095909581700895CF937F
:10248000DF938091A903C8E18111C6E18091AA037D
:10249000D0E0882329F08091AB03D8E18111D6E107
:1024A0000E94271281110FC08D2F80936E01C0935F
:1024B0006F01CD0F10927001C0937101C093720132
:1024C000DF91CF91089580E0F0CF8091A903F901C9
:1024D00080830E943F1208951F93CF93DF93182F9C
:1024E000C5E0D0E0893311F4C0E5D0E0812F0E942F
:1024F00039108FE99FE00197F1F700C000002197A4
:10250000C1F7812F0E94DB0FDF91CF911F910895BA
:10251000109291030E94BF0C2FEF84E39CE02150A6
:1025200080409040E1F700C0000088E19AE00FB6DB
:10253000F894A895809360000FBE90936000FFCF41
:10254000CF93DF93C7ECD2E060E0CE010E947831F8
:102550002196C11584E0D807B9F7DF91CF9108958E
:102560001F93CF93DF93122F8730E0F46830D0F4BD
:102570004630C0F4C42FD0E0CC0FDD1F9CE0699F33
:10258000C00DD11D112490E6899FC00DD11D1124CD
:10259000632FCE0187960E947831612FCE018896F5
:1025A0000E947831DF91CF911F910895AF92BF9231
:1025B000CF92DF92EF92FF921F93CF93DF9388E148
:1025C000C82E84E0D82ED0E07601C0E014C0F5011A
:1025D00025913491412F6C2F8D2F0E94B01282E0F3
:1025E000A80EB11C1F5F163091F78CE0E80EF11CAD
:1025F000CF5FC83019F0570110E0E9CFDF5F80E608
:10260000C80ED11CD73001F7DF91CF911F91FF90F9
:10261000EF90DF90CF90BF90AF90089586E290E06A
:102620000E9478310895CF93C82F6FEF811163E234
:1026300083E290E00E9478316FEFC11167E084E29D
:1026400090E00E9478316FEFC11161E185E290E086
:102650000E947831CF91089580E00E94131360E0CA
:1026600070E0CB010E940E130E94D6120E94A012AD
:1026700081E00E94131308950F931F93CF93DF936C
:10268000873030F5683020F5463010F5C42FD0E0A3
:10269000CC0FDD1F2CE0629FC00DD11D112430E650
:1026A000839FC00DD11D1124CE0187960E946431F5
:1026B000082F10E0102F0027CE0188960E94643169
:1026C0009801282BC901DF91CF911F910F91089597
:1026D00090E080E0F8CF462F873040F4783030F437
:1026E000663020F4672F0E943C13089590E080E04C
:1026F0000895CF92DF92FF920F931F93CF93DF93B2
:102700006C010091A80380910C02082BC7E0D0E077
:1027100010E0FC2EC8010C2E02C0959587950A94F6
:10272000E2F780FD0CC02197A0F7F12C8F2DDF91EF
:10273000CF911F910F91FF90DF90CF900895B60138
:102740008C2F0E946B130E94E008019761F3EECF7B
:10275000CF93DF93EC010E947913BE010E946B13AB
:102760000E94E008DF91CF910895FC01838194815C
:10277000892B29F08081918189238F3F51F480E05A
:102780000895843FE1F717C0883EA8F0813FB9F76C
:1027900012C0808191810E94A81392959F709630FB
:1027A00099F358F4925F9F70923048F7803F19F088
:1027B00040F7883E20F781E008959A5FF4CF86E2E3
:1027C00090E00E946431682F70E090E080E008950E
:1027D00083E290E00E946431833289F484E290E0E5
:1027E0000E946431873059F485E290E00E946431A0
:1027F00091E0813109F090E0892F8170089580E0A7
:10280000FCCFCF92DF92EF92FF926B017C010E948E
:102810002B08B701A60188E090E00E948A31FF9062
:10282000EF90DF90CF900895B0E0A0E0EAE1F4E10E
:102830000C94CB30182FC62FD42F822E00917E03FC
:1028400000FF4CC0E02FE695F0E0E057FE4F80819E
:102850008093EB02802F8E7F8230E9F4E42F47399A
:1028600008F0E6E9F0E0EC5EFC4FC1113CC02491B9
:10287000F22FE22F00FF0FC0809170019091710143
:1028800033E0839FD0011124A251BD4F891708F472
:102890009FC00E945D1180917F03811308C08091C9
:1028A00080038C1304C0809181038D1729F08091DF
:1028B000ED0282608093ED0210937F03C09380034A
:1028C000D0938103882051F060917E0370917F0343
:1028D00080918003909181030E940114CDB7DEB7EF
:1028E000ECE00C94E730EC2EF12CE4919E2ECE2EF1
:1028F000D12C26E0129FC00111242FEF30E0B90146
:102900000E94B130812F90E0880F991FF5E5F69F66
:10291000A001F79F500D1124841B950BB82EBB0C02
:10292000B80EA9014E195F094C9DC0014D9D900D37
:102930005C9D900D1124F92FCB9DA0011124452FF2
:102940005527D901A41BB50BAC9DA001AD9D500D21
:10295000BC9D500D1124D901AB19B1095D01AE9C8C
:10296000D001AF9CB00DBE9CB00D1124AB2FBB2786
:102970002A1B3B0B2C9DD0012D9DB00D3C9DB00D15
:1029800011242B2F62307105A1F050F461157105EF
:1029900009F470CF6130710581F0292FF52F6ACFCE
:1029A0006430710569F080F06630710509F462CF1A
:1029B000F4CF2E2FE92FFB2F5DCF2E2FE52F5ACFEF
:1029C000292FFE2FEB2F56CFE92FF92D252F52CF90
:1029D0001196EC9311972C931296FC9312978F5F9C
:1029E000139654CFEEE7F3E043812FE0421B08F447
:1029F00040E021E0628181810E9414140895EEE795
:102A0000F3E043812FE0420F08F44FEF21E06281B1
:102A100081810E9414140895EEE7F3E0628121E1C0
:102A2000621B08F460E021E0438181810E9414145C
:102A30000895EEE7F3E0628121E1620F08F46FEFA1
:102A400021E0438181810E9414140895EEE7F3E0B0
:102A5000818121E04381628181510E941414089593
:102A6000EEE7F3E0818121E0438162818F5E0E9485
:102A70001414089580918203882319F08150809363
:102A8000820360917E0370917F0380918003909117
:102A900081030E940114089580918203833018F409
:102AA0008F5F8093820360917E0370917F0380919A
:102AB0008003909181030E940114089580917E0308
:102AC00080FF1EC08170826080937E038091ED0242
:102AD00081608093ED02662351F060917E037091D6
:102AE0007F0380918003909181030E94011420E074
:102AF000409181036091800380917F030E941414B0
:102B0000089580917E038695815009F481E061E00B
:102B10000E945E15089561E081E00E945E150895AF
:102B2000EEE7F3E083E0808311828FEF828386E912
:102B300083831482ABEEB2E012968C91129783607D
:102B400012968C9360817181828193810E9401141D
:102B5000089568EE7EEF90E080E00E94963160E09C
:102B600082E090E00E94783160E083E090E00E9493
:102B7000783110920C0260E084E090E00E9478319D
:102B800064E082E290E00E94783160E085E090E0CD
:102B90000E94783160E086E090E00E9478316FEF2B
:102BA00087E090E00E94783140E050E0BA0188E090
:102BB00090E00E948A3160E08DE090E00E947831E0
:102BC00040E050E0BA0188E190E00E948A3160E084
:102BD00087E190E00E94783140E050E0BA018CE15A
:102BE00090E00E948A3170E060E080E290E00E9414
:102BF000963140E050E0BA0188E190E00E948A31CD
:102C000080E00E9413130E942C1340E050E0BA01B0
:102C10008FE090E00E948A3140E050E0BA0183E109
:102C200090E00E948A310895B0E0A0E0EAE1F6E188
:102C30000C94D0307901C82F880FDD0B4115510558
:102C4000A9F0FE0193E0EE0FFF1F9A95E1F7EF5F09
:102C5000FE4F81819281885E9D4F208130E0421736
:102C6000530708F49A01A9010E945B31CE010E942A
:102C70003B30D82E8823D1F001151105B9F083E03F
:102C8000CC0FDD1F8A95E1F7FE01EF5FFE4F438118
:102C900050E00417150708F4A801CF5FDE4F6C81E0
:102CA0007D81685E7D4FC7010E945B318D2DCDB760
:102CB000DEB7E7E00C94EC30A5E0B0E0E2E6F6E148
:102CC0000C94CD308D83E62E5A01F22E680180914E
:102CD0007D028A3028F080E02596EAE00C94E93005
:102CE0008D818830C4F31A8219828A836B832C8386
:102CF00063E070E0CE0102960E940F088983E092A3
:102D00002901F0923C0110E000E030E020E044E0D6
:102D100050E0BE016F5F7F4F84E00E94141688234D
:102D2000D1F24E2D50E030E020E0B50185E00E9468
:102D30001416882381F230E020E041E050E0BE012B
:102D40006B5F7F4F86E00E941416882321F20F2DBF
:102D500010E0960150E040E070E060E087E00E9403
:102D60001416BACFA8E0B0E0E8EBF6E10C94D3304B
:102D700085E0EEE7F3E0DE01119601900D928A9571
:102D8000E1F78091EB029091EC02A091ED028E832D
:102D90009F83A88728854091790250917A0260919B
:102DA0007B0270917C023FB7F89480918C039091E4
:102DB0008D03A0918E03B0918F033FBF841B950BB1
:102DC000A60BB70B84369105A105B10510F422239B
:102DD000C1F010E000E030E020E048E050E0BE014B
:102DE0006F5F7F4F83E00E941416882369F00E9472
:102DF00003086093790270937A0280937B02909328
:102E00007C021092ED0281E02896E4E00C94EF3011
:102E1000A4E0B0E0EEE0F7E10C94D330409175020D
:102E20005091760260917702709178022FB7F894F2
:102E300080918C0390918D03A0918E03B0918F03AC
:102E40002FBF841B950BA60BB70B11E084369105A1
:102E5000A105B10538F10E94F111882341F10E94CA
:102E600003086E5F7F4F8F4F9F4F69837A838B83F9
:102E70009C8310E000E030E020E044E050E0BE0140
:102E80006F5F7F4F82E00E941416182F882351F045
:102E90000E94030860937502709376028093770214
:102EA00090937802812F2496E4E00C94EF300E94F6
:102EB000030800917E0210917F02209180023091E0
:102EC0008102600F711F821F931FCBCFA5E0B0E07E
:102ED000ECE6F7E10C94D1307B0101E010E09E01BB
:102EE0002B5F3F4F50E040E070E060E080E00E94E8
:102EF0001416182F882309F456C04091710250917E
:102F0000720260917302709174022FB7F8948091ED
:102F10008C0390918D03A0918E03B0918F032FBFEE
:102F2000841B950BA60BB70B84369105A105B10543
:102F300048F464E070E089E192E00E940F089D810E
:102F4000891789F104E010E09E012F5F3F4F50E0A8
:102F500040E070E060E081E00E941416082F64E019
:102F600070E089E192E00E940F0811E09D819813C2
:102F700010E0102331F10E940308609371027093F6
:102F80007202809373029093740289819A81AB815B
:102F9000BC8180936D0290936E02A0936F02B093F8
:102FA000700211E00EC08091190290911A02A09156
:102FB0001B02B0911C0289839A83AB83BC831111DD
:102FC000E4CF80916D0290916E02A0916F02B0915A
:102FD0007002F70180839183A283B383812F2596AA
:102FE000E6E00C94ED3090E080E00E947231883E83
:102FF0009E4F19F40E94E813089580E0089528E098
:1030000030E043E060E086E30E94372D0895ACE0B5
:10301000B0E0EDE0F8E10C94CF304F83588769873A
:103020007A878B879C878091A903882399F00E94D7
:10303000FF1780E50E94AF2D8AEB8A95F1F700C05B
:103040000E94C72D887899278038910509F487C098
:103050000E94DF2D0E94F111882309F46BC00E94A9
:1030600003080091B1011091B2012091B301309198
:10307000B4016B017C01C01AD10AE20AF30A97017C
:103080008601083011052105310508F453C060930D
:10309000B1017093B2018093B3019093B401009198
:1030A000B7031091B8032091B9033091BA03601BA4
:1030B000710B820B930B623371058105910580F4CE
:1030C0001092AD031092AC031092AF031092AE03B6
:1030D0001092B1031092B0031092B3031092B20396
:1030E0001091B6030E942712482FBE01695F7F4FDF
:1030F0008CEA93E0112309F45FC00E94DF0A00917B
:10310000B6031091A9030E94271241E04827BE018F
:10311000695F7F4F80EB93E0011709F450C00E9474
:10312000DF0A86E0FE013796A5ECB3E001900D9230
:103130008A95E1F786E0FE013796DE01119601904F
:103140000D928A95E1F729813A814B815C816D81ED
:103150007E8180E090E02C96E8E00C94EB300E94B9
:10316000C72D0E94C72D7C010E94C72D20E0E22AB6
:10317000F82A0E94C72D8C010E94C72D20E0022B47
:10318000182B0E94DF2DF894B7018091AC03909129
:10319000AD030E94BF0B9093AD038093AC03B801C5
:1031A0008091AE039091AF030E94BF0B9093AF0349
:1031B0008093AE0378944ECF0E94650BA0CF0E94FF
:1031C000650BAFCFCF93DF93D82FC62F0E94FF1789
:1031D0008D2F80680E94AF2D8C2F0E94AF2D0E94F2
:1031E000DF2D8FEC92E00197F1F700C00000DF9136
:1031F000CF910895682F893708F068E76093B4038A
:1032000091E09093B5039091A903992359F06150EF
:10321000811101C066E08FE00E94E21860E080E565
:103220000E94E2180895FB0180810E94FA18089517
:103230009091B403911101C097E0282F880F330BB0
:10324000A901490F511DCA011816190614F081E091
:1032500090E00E94FA180895CF93C82F0E94FF179C
:103260008C2F0E94AF2D8FE792E00197F1F700C0FD
:1032700000000E94C72DC82F0E94DF2D9AE69A9564
:10328000F1F700C08C2FCF910895CF93DF930E9468
:103290002F2D269A0E94FF176AE58AE30E94E21802
:1032A0002FEF80E792E0215080409040E1F700C08E
:1032B000000082E00E942C1983E00E942C1984E017
:1032C0000E942C1985E00E942C1986E00E942C197E
:1032D00060E080E10E94E21880E00E942C19D82F63
:1032E00081E00E942C19C82F0E94DF2DD23419F4DE
:1032F00081E0C13009F080E081708093A9038823C8
:1033000041F066E08FE00E94E21860E080E50E94F4
:10331000E218DF91CF9108951F920F920FB60F928E
:1033200011242F933F934F935F936F937F938F93CA
:103330009F93AF93BF93CF93DF93EF93FF93D0917E
:10334000E900DF708091EC00C82FC17080FDC0E8FB
:103350001092E9008091F000877F8093F0007894CC
:103360000E94CB0C1092E9008091F000886080935D
:10337000F000CD2BCF70C093E900FF91EF91DF916A
:10338000CF91BF91AF919F918F917F916F915F91FD
:103390004F913F912F910F900FBE0F901F90189556
:1033A0001F920F920FB60F9211242F933F934F93BA
:1033B0005F936F937F938F939F93AF93BF93EF939D
:1033C000FF938091E10082FF09C08091E20082FFBB
:1033D00005C08091E1008B7F8093E1008091DA004D
:1033E00080FF24C08091D80080FF20C08091DA0047
:1033F0008E7F8093DA008091D90080FF9DC080E1AC
:1034000089BD82E189BD09B400FEFDCF81E08093D2
:103410009E0380919003811109C00E9468060E945A
:1034200033078091E20084608093E2008091E100A4
:1034300080FF17C08091E20080FF13C08091E200FE
:103440008E7F8093E2008091E20080618093E200B1
:103450008091D80080628093D80019BC85E0809369
:103460009E038091E10084FF2BC08091E20084FFE5
:1034700027C080E189BD82E189BD89B5982F91700F
:1034800080FFFBCF8091D8008F7D8093D800809102
:10349000E1008F7E8093E1008091E2008F7E809337
:1034A000E2008091E20081608093E20080919F03BE
:1034B000882309F447C084E080939E0380919E0393
:1034C0008091E10083FF27C08091E20083FF23C049
:1034D0008091E100877F8093E10082E080939E03EA
:1034E00010929F038091E1008E7F8093E100809194
:1034F000E2008E7F8093E2008091E2008061809301
:10350000E20042E060E080E00E9401078091F0006C
:1035100088608093F000FF91EF91BF91AF919F91F0
:103520008F917F916F915F914F913F912F910F906C
:103530000FBE0F901F90189519BC10929E03109209
:10354000900374CF8091E30087FD93E090939E03F6
:10355000B5CF78941F921FB61F9211248F939F931B
:10356000AF93BF9380918C0390918D03A0918E03B4
:10357000B0918F030196A11DB11D80938C03909390
:103580008D03A0938E03B0938F03BF91AF919F9152
:103590008F911F901FBE1F9018959C014FB7F894F4
:1035A00080918C0390918D03A0918E03B0918F0335
:1035B0004FBF821B930B08952FB7F89480918C0313
:1035C00090918D03A0918E03B0918F032FBF08952A
:1035D000ACE0B0E0EEEEFAE10C94CA308E010F5F81
:1035E0001F4F88E0D8011D928A95E9F786E7C82E1B
:1035F00081E0D82EF12CE12CAA24A394B12C20E850
:10360000822E21E0922EF60181916F018F3F09F405
:1036100042C0F894E82FE295EF70F0E021A18F709E
:10362000A50102C0440F551F8A95E2F7CA01922FE7
:10363000982B91A392A18095892382A3789400C0AE
:10364000EAE7F1E0712C31E021912F3F09F46BC0E2
:10365000A22FA295AF70B0E090968C9190E02F7061
:1036600002C0959587952A95E2F780FD5CC0832F6F
:10367000782A330F8E169F0639F7F601319780812D
:103680008F3F11F00E94860850EA5A95F1F7F80131
:10369000EE0DFF1D70828FEFE81AF80AA4E0EA161B
:1036A000F10409F0B0CF48E050E0B80182E892E0C0
:1036B0000E944E31009741F028E0F801A2E8B2E004
:1036C00001900D922A95E1F700918B02892B69F107
:1036D00081E080930F020E94DC1A90930E02809387
:1036E0000D0280910D0290910E020E94CD1A059755
:1036F00000F110E00C531D4F44E050E062E872E02E
:10370000C8010E944E31B12C892B51F084E0E2E8CF
:10371000F2E0D80101900D928A95E1F7BB24B394B1
:1037200010920F0207C080E0A3CF80910F02811199
:10373000D8CFB12C0E94F111A82EE0918B028823E2
:1037400009F47DC019861A861B861C860E2F10E090
:103750000C531D4F80917D028A30D8F546E657E123
:10376000BE01675F7F4FC8010E94BE11882309F424
:1037700055C048E057E1BE01675F7F4FC8010E9416
:10378000BE11882309F44AC042EB56E1BE01675FCF
:103790007F4FC8010E94BE11882309F43FC01092D8
:1037A0007D0280918A0290E044E050E0BE01675FB4
:1037B0007F4F8C539D4F0E944E3121E02093160283
:1037C000892BF1F4A12C8A2D8B292C96EDE00C94F9
:1037D000E63080911002909111020E94CD1A843F30
:1037E000914008F0BBCF80911602882359F3FE0167
:1037F000399684E0DF011D928A95E9F7109216024E
:10380000E0918A02F0E0EC53FD4F89859A85AB8503
:10381000BC8580839183A283B383D5CF80917D02C1
:103820008F3F31F08F5F80937D028A3008F4B9CFEB
:103830000E94DC1A9093110280931002D4CFF0E022
:10384000EC53FD4F84E0A9E1B2E001900D928A951E
:10385000E1F764E070E089E192E00E940F08809354
:103860001802C0901D02D0901E02E0901F02F0903E
:1038700020028091120290911302A0911402B09143
:103880001502C816D906EA06FB06D1F0C09212024C
:10389000D0921302E0921402F09215020E94F111EC
:1038A00081110EC00E940308C61AD70AE80AF90A55
:1038B000C0927E02D0927F02E0928002F09281025A
:1038C00080912802882309F47ECF80FF0DC080916B
:1038D000210280FF19C090917E03916090937E0336
:1038E00060E086950E945E158091280281FF09C0E4
:1038F00020E04091240260912302809122020E94E4
:103900001414109228025FCF0E94A811EDCF86E018
:103910000E94B30F0E94DC1A9093DB028093DA02BC
:1039200082E08093DE020895AEE1B0E0EAE9FCE1D6
:103930000C94CD304091E5025091E6026091E7028F
:103940007091E8028091E9029091EA020E940718C2
:103950002093E5023093E6024093E7025093E80299
:103960006093E9027093EA0286E0E5EEF2E0DE01A0
:10397000179601900D928A95E1F786E0FE01379641
:10398000DE011D9601900D928A95E1F786E0FE0119
:103990003D96DE01119601900D928A95E1F786E041
:1039A000FE013196A5EEB2E001900D928A95E1F705
:1039B00086E0E5EEF2E0DE01599601900D928A95DF
:1039C000E1F786E0FE017996DE01179601900D92EF
:1039D0008A95E1F7EB8C0C8D9E2D902B8091DE0269
:1039E000992309F42EC10E2C000CFF08002E000CA8
:1039F000110B8330D1F0A0F4813009F468C082301B
:103A000009F485C00E94DC1A9093DB028093DA02ED
:103A100081E08093DE021092DD021092DC0205C08C
:103A2000853009F47BC0863069F786E0FE01379661
:103A3000DE01119601900D928A95E1F786E0FE0174
:103A40003196DE01539601900D928A95E1F786E05A
:103A5000FE017396DE01179601900D928A95E1F7AB
:103A600086E0FE013796A5EEB2E001900D928A95B0
:103A7000E1F746E050E06FED72E085EE92E00E94E3
:103A80004E31892B79F0E0918903F0918A033097C8
:103A900049F082E08093E5020480F581E02D85EE17
:103AA00092E009951092E7021092E8021092E90262
:103AB0001092EA0286E0E5EEF2E0AFEDB2E00190AE
:103AC0000D928A95E1F76E96EAE00C94E930F7FEE4
:103AD00003C0F194E194F10817FF03C0119501951B
:103AE0001109E00EF11E0091DC021091DD02E00EE2
:103AF000F11EF7FE05C0F092DD02E092DC0295CFE8
:103B00001092DD021092DC020E94871C8ECF0E9470
:103B1000DC1A9093DB028093DA0287CF0E94DC1AD2
:103B20009093DB028093DA026701F7FE04C0CC2495
:103B3000DD24CE18DF082AE0C216D10454F4C801EF
:103B400017FF04C088279927801B910B0A970CF454
:103B50006CCF21E04FEF60E88AEE0E941414809150
:103B6000D7029091D8028C329846F1F4580117FF91
:103B700004C0AA24BB24A01AB10ACA14DB040CF0A6
:103B8000B9C083EE0E9439108EE217FF8DE20E94C9
:103B90006C12AC14BD0444F483EE0E94DB0F8EE380
:103BA000F7FE4CC00E946C128091D7029091D8020F
:103BB0008139924601F581EE0E94DB0F83EE0E946F
:103BC000391017FF8FC0AA24BB24A01AB10ACA1447
:103BD000DB041CF48EE10E946C12AC14BD042CF4C6
:103BE0008FE2F7FE80E30E946C1283EE0E94DB0FEF
:103BF00081EE0E9439108091D7029091D8028936C7
:103C00009146A9F480EE0E94391017FF63C0119508
:103C10000195110985E2C016D1060CF460C00C159F
:103C20001D052CF481E2F7FE83E20E946C1281E014
:103C30008093D90286E08093DE02F7CE0E9439108D
:103C4000B3CF833009F4F1CE58F48130D1F0823013
:103C500011F11092DD021092DC021092DE02E5CE2C
:103C6000853089F128F18630A1F78091DA029091B0
:103C7000DB020E94CD1A8D32914008F4D6CE85E049
:103C8000DACF8091DA029091DB020E94CD1AC397BD
:103C900008F4CBCEDECF8091DA029091DB020E9455
:103CA000CD1A8937954008F4C0CE0E94AD0FBDCE25
:103CB0008091DA029091DB020E94CD1A873991053A
:103CC00008F4B3CEF2CF21E04FEF6FEF8AE60E9407
:103CD0001414ABCEC016D1060CF0A1CF8FE10E9418
:103CE0006C129DCFC016D1061CF48FE10E946C129D
:103CF000580173CFAC14BD040CF099CF4DCFA2E1A5
:103D0000B0E0E5E8FEE10C94C8307C01DC011396DC
:103D10008D919C911497892B39F08C9111969C91DF
:103D200089238F3F09F067C46296EFE00C94E4307A
:103D30000E947913182F682F89819A810E94700A36
:103D400069817A81812F0E946B138C01F701828136
:103D5000882309F445C4C80182519F45409708F063
:103D600012C48FEF93E00E9464318111DDCF0251C4
:103D700097ECA92E92E0B92E011136C01C821B824D
:103D8000662463948AE0582E85010F5F1F4FC5019A
:103D90000E94643189831A82882331F29FEF980F41
:103DA000933088F58A83698232E0A30EB11CC80182
:103DB0000E9464318B83882309F4B6CF8E010F5F94
:103DC0001F4FD8012C912223F9F2213009F073C042
:103DD00011969C91119712968C919130B1F40E5FCF
:103DE0001F4F0E946C1217C0A114F4E0BF0609F423
:103DF0009BCFC5010E946431811101C001502FEF9A
:103E0000A21AB20AB9CF5801D9CF923029F50E5F64
:103E10001F4F0E9439100F5F1F4F8FE99FE00197DE
:103E2000F1F700C00000AFE9BFE01197F1F700C063
:103E30000000EFE9FFE03197F1F700C000008FE9E3
:103E40009FE00197F1F700C00000AFE9BFE01197D4
:103E5000F1F700C00000B5CF933029F40E5F1F4F7B
:103E60000E94DB0FD8CF943019F00F5F1F4FD3CFD4
:103E70000E5F1F4F30E020E0B8016F5F7F4FF80109
:103E800041818053990B8A30910550F021503109BE
:103E900010F28FE99FE00197F1F700C00000F6CF24
:103EA000529EF001539EF00D11249C012E0F3F1FD6
:103EB000842F8B01E1CFE22FF0E0E957FE4F7490A1
:103EC000822F86958695869590E0FC01E958FE4FF5
:103ED000E4902770F12C022E02C0F594E7940A9426
:103EE000E2F7A1E0EA22FF24FC01E959FE4FC49069
:103EF000D12C022E02C0D594C7940A94E2F7B1E007
:103F0000CB22DD24FC01E95AFE4F8490912C02C0A3
:103F1000959487942A95E2F7E1E08E229924E114A2
:103F2000F10419F081EE0E943910C114D10419F086
:103F300086EE0E943910872D0E946C12C114D104A4
:103F400019F086EE0E94DB0FE114F10419F081EE06
:103F50000E94DB0F8114910409F45DCF8CE241CF04
:103F600081E00E94B30F03C081E00E94A00F0E9475
:103F7000940FDACE82E0F5CF083634E6130749F124
:103F80000C3248E6140729F0013952E6150709F00A
:103F900021C3C0909103DD20F1F185E08093DE0222
:103FA000CC20F1F121E040E060E080E00E941414B8
:103FB0001092DE020EC08091A8030E94A70A8630EC
:103FC00041F483E0D11003C00E94871C84E08093F9
:103FD000DE02C8019A95F80181159F4108F4FF2778
:103FE000D70112968C91E43FF10540F0E93FF105CD
:103FF000F0F0E83BBDE5FB0709F4BBC0882309F4FA
:1040000048C0E15BFD45EA30F10508F042C0E854E4
:10401000FE4C0C943831109291030E94AD0FC0CF2A
:104020008091D9028823A9F21092D9027DCEE45F53
:10403000F10921E030E001C0220FEA95EAF796E0AD
:10404000E5EEF2E0DE01179601900D929A95E1F708
:1040500096E0FE013796DE011D9601900D929A952D
:10406000E1F79885882309F45EC0292B2E8786E026
:10407000FE013D96DE01119601900D928A95E1F7C1
:1040800086E0FE013196A5EEB2E001900D928A9590
:10409000E1F7F7019281911105C18091910382723C
:1040A000093CFCE51F0709F4EBC008F092C0053C91
:1040B0003CE5130709F4DFC008F074C0033C5CE57D
:1040C000150709F4CCC008F0D1C0023CBCE51B07C1
:1040D00009F49BC0D7010D911C91992309F401C1EA
:1040E000C8010E947913D82E682FC8010E94700A57
:1040F000B8018D2D0E946B130E94E008182FB82E76
:10410000F70122814581342F32953F70892F8295A6
:104110008F70C82ED12C8C3008F01BC1F601EE53E5
:10412000FE4C0C94383120952923A0CF80E00E94CA
:10413000FA181092BB03F8CD4091B4035091BB0321
:1041400050FB47F95695537060E070E08FE090E0C7
:104150000E948A31E9CD81E00E941819E5CD8FEFE8
:10416000FBCF8AE0F9CF86EFF7CF9091B60381E0DD
:1041700089270E94B80AD8CD8091BB03811101C064
:1041800084E08F5F18160CF081E0883008F087E03B
:104190008093BB03C9CD8091BB03811101C084E032
:1041A0008150F0CF4CE055E169E175E1073CECE569
:1041B0001E0709F458C040E355E166E275E1083C8A
:1041C000FCE51F0708F44FC049E155E16CE075E1DB
:1041D0004AC00D3C2CE5120709F461C060F40B3CA9
:1041E0004CE5140709F456C008F44FC04CE455E1FF
:1041F0006AE375E138C0063D8CE5180708F494CDF4
:104200000D35100709F490CD65CF80917E0380FFB6
:104210001EC08E7F80937E0360917E0370917F032A
:1042200080918003909181030E9401148091ED029E
:1042300081608093ED02BFEFE0E7F2E0B150E04033
:10424000F040E1F700C000000E945D116DCD81607B
:1042500080937E0361E086950E945E1565CD41E8FE
:1042600055E16BE875E10E9425085ECD4BE855E10C
:1042700061E875E1F8CF46E255E160E375E1F3CF1F
:1042800042EF54E16FEF74E1EECF4FEF54E162EF94
:1042900074E1E9CF4AE355E16CE475E1E4CF61E014
:1042A00081E0DACF0E3D2CE51207B9F0073A3DE583
:1042B0001307A9F001151C4509F00CCF10929103CA
:1042C0000E94BF0C5FEF84E39CE05150804090401F
:1042D000E1F700C000000E94F2070E94A9150E94A9
:1042E0008812C8010E943C0AD82E02CF092F0F70F5
:1042F000907F11F00295007F812F2223C9F00023C7
:1043000069F090E2910F983010F011110BC080917C
:104310009103082B009391030E94980C812F0E9417
:10432000391017C080910B02082B00930B02F4CFB9
:104330000E94DB0F002369F00095105E183010F02A
:10434000B11012C0809191030823009391030E9441
:10435000980C98E0C91AD108A4E0CA16D10408F054
:10436000E3CC0E941612E0CC80910B02082300934C
:104370000B02EDCF892F8F70907F903211F08295D4
:10438000807FF1E0BF120CC0222329F0363008F7FD
:104390000E94D10FDECF3530E0F60E94C60FD9CF94
:1043A000222349F03323A1F340FFB8CF4F70D70148
:1043B00015964C93EDCF332381F3193309F0DBC00D
:1043C000BFEFE7EEF3E0B150E040F040E1F700C0AE
:1043D0000000812F0E94DB0FBCCF892F8370A1F5D5
:1043E0002111B7CF812F829586958770880F880F0E
:1043F000412F4F70082E01C0440F0A94EAF7212F75
:10440000207114FF07C02FE030E001C0220F8A9511
:10441000EAF72095969596959370923081F0822FC9
:10442000842B933030F480910C02913029F0242BAE
:1044300082230E94BF0F8DCF842B822BFACF242B97
:1044400080910C028227F5CF8695222311F0892FC7
:104450008170882309F47DCF812F8295869587709E
:10446000880F880F412F4F70082E01C0440F0A9407
:10447000EAF7212F207114FF07C02FE030E001C0C0
:10448000220F8A95EAF7209596959695937092302B
:1044900081F0822F842B933030F48091A8039130E7
:1044A00029F0242B82230E948B0F53CF842B822B45
:1044B000FACF242B8091A8038227F5CF092F0F7004
:1044C000222329F0802F0E94B30F812F61CF812FEB
:1044D0000E94C60F802F0E94A00F3BCF812FA1EF1B
:1044E0001A1789F1A11750F0B0EF1B17B9F022236A
:1044F000B1F1311113CF892F8F7129C0E2EF1E174F
:1045000049F1F3EF1F13F3CF80E0222361F29F7193
:1045100081E001C0880F9A95EAF7C5CF222379F090
:10452000353008F016CF292F2F7181E090E001C0BF
:10453000880F2A95EAF79091A8038927B4CF3630DF
:1045400008F007CFF0CF892F8F71222321F20E942C
:10455000B30FFFCE892F8F712223C9F3BCCF332332
:1045600079F0893341F42FEF37EE43E021503040AA
:104570004040E1F72CCF8FE19EE40197F1F727CF80
:10458000892F8F71A8CF0031BFE51B0709F4E8CC54
:104590000131EFE51E0709F4EDCC1093C20300933F
:1045A000C103F701808191819093C4038093C30379
:1045B0001093D8020093D702D2800936F1E61F0784
:1045C00009F4E7CC08F0D8CCC801845F91090597BD
:1045D00008F4F1CCDD2009F4FCCC0E94AD0FF9CC3D
:1045E0000031FFE51F0709F4BFCC01312FE51207A9
:1045F000A1F682E0BACC85E0F701DE0111960190C8
:104600000D928A95E1F7D70112962C9189819A81B2
:1046100021118ECB0E943C0A182F92CB1F93CF936F
:10462000DF938091D001807F09F049C08091CD0156
:10463000882309F444C080910202D091D101609195
:10464000CB017091CC01A091CE01B091CF01C62FCA
:10465000C72316E0D81799F190E0109711F0CF3FDB
:1046600019F401968770F6CF189F9001199F300DAD
:104670001124F901EE52FE4F41814713F2CF4081E0
:104680004613EFCF42814111ECCF438154814A1B45
:104690005B0B483C510528F78091D0018F708061F9
:1046A0008093D001F901E952FE4F80818F708061C3
:1046B00080838BEC91E00E947F1E0E94320ADF9182
:1046C000CF911F910895A1E1B0E0E9E6F3E20C94E7
:1046D000CD308C0185E0F801DE011D9601900D9230
:1046E0008A95E1F7D8011296EC9012978BECA82EE0
:1046F00081E0B82E6091CE017091CF0161157105F6
:1047000009F432C19091CB014091CC01892F8423CF
:104710008F3F09F429C12C9111963C911197139662
:10472000CD90DC90F090CD01F601E61BF70BFF2059
:1047300009F4E5C08091D001582F507FE83CF10585
:1047400008F0ABC0511177C0FE2C431315C0921373
:1047500013C0E11011C08F7080618093D001C5013A
:104760000E947F1E8091D001D80115968C938F2DC9
:104770006196EAE00C94E930C114D10429F0822F4B
:1047800083238F3F09F00BC180E0B82FB170DB2E7F
:1047900080FF3CC0809102024091D10156E0841319
:1047A00015C02D873E878D859E850E94A813292FD1
:1047B00022952F702230F0F0243018F59F70F1F020
:1047C000F8019581907FD1F4D12C1EC090E0589FC4
:1047D000F001599FF00D1124EE52FE4F6181361306
:1047E00006C06081261303C06281E6120FC00196E5
:1047F0008770D5CF9F7011F0882331F3805E8830A9
:1048000018F3C8010E947F1EFD2CB1CFEE2009F4E1
:10481000AECF8091D00181608093D0018BEC91E08C
:104820000E947F1E86E0EBECF1E0DF011D928A958D
:10483000E9F7F12C9CCF431306C0921304C0F80192
:10484000EE2009F476C0C8010E94B513882309F14F
:10485000EE20F9F08091D001803270F02091CB01F0
:104860003091CC0138872F831986DB86CA868C87E6
:10487000CE0107960E947F1E86E0F801ABECB1E006
:1048800001900D928A95E1F70E940E23FF24F39484
:104890006ECFC8010E947F1EF9CF511107C08BEC6B
:1048A00091E00E947F1E86E0D501C0CF43130FC068
:1048B00092130DC0E1100BC0F8018583C8010E945E
:1048C0007F1E86E0D5011D928A95E9F750CFC80179
:1048D0000E94B5138823E9F2EE20D9F28091D0012D
:1048E000803250F22091CB013091CC013A83298360
:1048F0001B82DD82CC828E83CE010196BBCFE83C49
:10490000F105F8F6FE2CEE2021F243131FC092139E
:104910001DC08091D00180FD10C0982F907F69F05C
:10492000F8018583903F31F0982F907F905F8F70D2
:10493000892B8583C8010E947F1E86E0F801ABECBD
:10494000B1E001900D928A95E1F711CFC8010E9464
:10495000B513811191CF8091D00181608093D001F6
:10496000C8010E947F1E03CFEE2009F492CFC80138
:104970000E94B513F82E882309F48BCF86E0F80146
:10498000ABECB1E001900D928A95E1F78091CB01FB
:104990009091CC010E94A8130E940E23E8CE81E0E2
:1049A0008E25F3CEA7E1B0E0E8EDF4E20C94D4302C
:1049B0004B8B5C8B6D8B7E8B8F8B611110920B02FE
:1049C0001A8A198A85E0FE017396DE011D96019010
:1049D0000D928A95E1F786E0FE013D96DE0117967D
:1049E00001900D928A95E1F7CE0107960E9463230C
:1049F000882359F016E0809102029091D101891329
:104A000045C06796E3E00C94F03086E0FE013796EF
:104A1000DE01119601900D928A95E1F78A859B85BA
:104A2000892B41F38F81988589238F3F19F320913A
:104A3000D10130E0C90101968770992740910202A7
:104A40004817190681F4109291030E94BF0C10922E
:104A5000D1011092020286E0EBECF1E0DF011D9241
:104A60008A95E9F7C7CF96E0929FD001939FB00D4A
:104A70001124AE52BE4FFE01319601900D929A95CF
:104A8000E1F78093D1010E94320AB4CF819FC00127
:104A900011248E529E4F0E946323882309F4B1CFC4
:104AA0008091020290E0019687709927809302021C
:104AB000A2CF1F921FB61F9211248F939F93AF9383
:104AC000BF9380918B03811113C080918C039091CF
:104AD0008D03A0918E03B0918F034196A11DB11D4E
:104AE00080938C0390938D03A0938E03B0938F03D8
:104AF000BF91AF919F918F911F901FBE1F901895EE
:104B0000CDB7DEB7E2970FB6F894DEBF0FBECDBFCC
:104B100085B7806885BF85B7806885BF84B7877F84
:104B200084BF0FB6F894A895809160008861809347
:104B30006000109260000FBE80E890E00FB6F8941D
:104B400080936100909361000FBE85E598E090939B
:104B5000A3018093A2010E9468060E9433078091FE
:104B6000E20084608093E200789480919E03882321
:104B7000A1F01091E9001F709091EC00892F8170D5
:104B800090FD80E8182B1092E9008091E80083FDE9
:104B90000E94CB0C1F701093E90082E084BD93E06B
:104BA00095BD9AEF97BD80936E0010927E02109291
:104BB0007F0210928002109281020E94E8138111FC
:104BC00002C00E942C130E94271280930001809142
:104BD0000001882309F472C010926E0188E180936D
:104BE0006F010E94F11181110E944F2F80910001ED
:104BF0008091000194E0811190E090938B0284E019
:104C0000891B80938A0284EF0E94860885EF0E94A8
:104C1000860886EF0E94860887EF0E9486080AE7CA
:104C200011E080E8E82E81E0F82ED8018D918D0109
:104C30008F3F11F00E948608E016F106B1F788E078
:104C4000E4ECF2E0DF01C82E1D92CA94E9F7E2E835
:104C5000F2E0DF011D928A95E9F70E94F3178111B6
:104C600002C00E94A91582E090E00E946431809306
:104C7000910284E090E00E946431182F82E290E07B
:104C80000E946431982F812F90938D0280938C0223
:104C90000E94E81AEFE3FCE93197F1F700C0000049
:104CA0000E94E81A8091C40280FF0CC06FEF7FEF72
:104CB00090E080E00E9496310E94F20788E18093A4
:104CC0006E018DCF83E090E00E9464310E94BF0F9F
:104CD0008091A8030E94CC0A0E94F111882309F454
:104CE0004EC180E08093BF0280E88093CB030E9496
:104CF000092E6DE070E08AE192E00E94A210892BFB
:104D0000E9F58091BF0263E070E081FD3AC187E17F
:104D100092E00E94A210892B89F56DE070E087E097
:104D200092E00E94A210892B49F50E940308605A64
:104D300075418F4F9F4F60938303709384038093DB
:104D4000850390938603EEECF3E080E092E0DF01D0
:104D50009C011D9221503040E1F7F093D505E0937E
:104D6000D4058FEF9FEF9093CD038093CC0381E028
:104D700080938803809387031092C00280918E02F3
:104D8000811136C00E94F317811104C00E94A91539
:104D90000E94901588E090E00E946C3160937E0341
:104DA00070937F0380938003909381038091ED0241
:104DB00083608093ED026E7F71F40E94901588E00D
:104DC00090E00E946C3160937E0370937F03809328
:104DD0008003909381030E942B0880917E0380FFC3
:104DE00004C060E086950E945E1581E080938E028B
:104DF0000E94F111811102C00E94522F0E94451998
:104E00000E94F11181112EC085E692E19093480134
:104E10008093470125E130E0309343012093420124
:104E200085E390E0909346018093450141E458E08A
:104E30005093500140934F0130934B0120934A010E
:104E400090934E0180934D0143E159E150935801F5
:104E50004093570130935301209352019093560190
:104E6000809355010E94F317882389F08FE090E02A
:104E70000E946C318B01862F8F770E94FA18001FD9
:104E80000027001F1370110F102B1093BB030E94FB
:104E90003F1289E591E090938A0380938903BAE0F9
:104EA0008B2E912CA12CB12C80919E0300E112E15C
:104EB000853009F4A8C00E94E81A02E912E0A4ECC7
:104EC000B2E0BCA7ABA7E8E8F1E0F8ABEFA7BF0101
:104ED0009D01F8019191D9018D919D01DB014D91C9
:104EE000BD018423B2E0EA39FB0709F498C09817A2
:104EF00089F30E94F111682EF8E8EF2EF1E0FF2E01
:104F0000A4ECCA2EA2E0DA2E512CF60171906F01AA
:104F1000D7018D917D017822F80121908F0127140E
:104F200029F12724412C33243394822D8321B1F09D
:104F30006620A1F04EA25FA291E0872D832109F4A3
:104F400090E098A70E94DC1A8160782F9AA789A721
:104F50004EA15FA168A58AA50E94D2244394330C78
:104F6000F6E04F12E2CFF80131977082539428E0B7
:104F70005212CBCF0E940308FF24F39471C082E049
:104F8000B1CE84E192E0C5CE80919E03843041F1A0
:104F90000E94CC100E94941C10928B0348E150E0B8
:104FA00080E40FB6F894A895409360000FBE8093FC
:104FB000600083B7817F846083BF83B7816083BFD4
:104FC0007894889583B78E7F83BF0FB6F894A895A1
:104FD00080916000886180936000109260000FBE35
:104FE00080919D03882379F00E94E81AE4ECF2E0B6
:104FF000A8E8B1E081919D91892309F018C592E05C
:10500000EC3CF907B9F780919E03853009F4BCCFD9
:10501000109291030E94BF0C0E9416124CCF98135D
:1050200068CF0E94DC1A8C0180918F0290919002CF
:1050300008171907A1F08FEF89A38AA31BA20E946A
:10504000DC1A8160782F9DA38CA349A15AA16BA182
:105050008DA10E94D2241093900200938F02F12C14
:105060000E94F11180918803882309F496C18091F0
:10507000C1029091C2020E94CD1AC29708F40DC1DC
:105080000E94DC1A9093C2028093C1028EEC93E0DE
:105090009093D5058093D4050E94F111882309F4DB
:1050A0007FC21091C103012F87E692E00E94520C4B
:1050B0008091C4038F708A3008F0DDC0805D0E944B
:1050C000D20B83E692E00E94520C8091C3038F7052
:1050D0008A3008F0D2C0805D0E94D20B002309F410
:1050E000D2C080E692E00E94520C812F82958F7090
:1050F0008A3008F0C4C0805D0E94D20B812F8F706F
:105100008A3008F0BEC0805D0E94D20B8CEF810F08
:10511000853308F0B8C08CE592E00E94520C412F14
:105120004450550BFA01E95DFD4F84910E94D20B6A
:1051300083E892E00E94520C8091C7030E94940B76
:105140000E948A108091C8030E94940B0E948A10CA
:105150008091CA030E94940B0E948A108091C90317
:105160000E94940B0E948A108AE792E00E94520CDF
:105170008091B403811101C087E00E94940B0196D5
:105180000E948A1084E792E00E94520C8091B6033C
:1051900081117DC080E30E94D20B80E792E00E94E3
:1051A000520C8091BB03811101C084E0805D0E949C
:1051B000D20B8DEC92E00E94520C8091A8030E94C9
:1051C000A70A90916501891305C090919E029032C3
:1051D00009F444C08093650190E290939E02482EAA
:1051E000512C712C612C10929D02C301B201A501BA
:1051F00094010E941631605D603331F04114510416
:105200006104710409F460E260939C0260E25AE078
:10521000451651046104710468F0C301B201A5018F
:1052200094010E941631CA01B901A50194010E949E
:105230001631605D60939B0220E284E648165104BB
:105240006104710448F0C301B20124E630E040E09B
:1052500050E00E941631205D20939A028AE992E084
:105260000E948A10E091DE02E730B8F4F0E0E253E9
:10527000FE4C0C943831895A22CF895A2DCF895A45
:105280003BCF895A41CF81E00E94600C51CF81E32E
:1052900082CF83EC92E00E94920C80918803882355
:1052A00009F462C02091CC033091CD032115310562
:1052B00009F45AC08091C002811156C0082F10E035
:1052C00044244394512C082E02C0440C551C0A94CB
:1052D000E2F7A90144215521452B09F466C19091BB
:1052E000BF0290FD64C18295880F8076809368012B
:1052F0009801369527953695279520936B01815E09
:105300008093690110926C0124E630E047E050E0A0
:1053100066E671E088E70E94A92E892B29F5A8018D
:1053200065E0440F551F6A95E1F78091BF0280FD4B
:105330004CC142535C4F04E610E020E230E060E4F0
:1053400088E70E94CA2E892B79F40E94E710C201D7
:10535000809590954090CC035090CD0348225922DF
:105360005092CD034092CC03809187038823A9F00B
:105370000E94030800918303109184032091850308
:1053800030918603601B710B820B930B6F3F7F4F35
:105390008F4F9F4710F40E94CC10F1100E94E7102D
:1053A0000E94941C0E9416129091C302891721F04A
:1053B0008093C3020E94030880919E03843009F405
:1053C0006BC10E94F111882309F46ECD0E9403087D
:1053D0002091D20221116DC00091CE021091CF0216
:1053E0002091D0023091D1026B017C01C01AD10A08
:1053F000E20AF30A97018601043F114021053105B5
:1054000008F457C06093CE027093CF028093D0020D
:105410009093D1028091CC029091CD02019690930D
:10542000CD028093CC0219828E010F5F1F4F21E0C5
:1054300050E040E060E088E00E945C16811106C008
:105440008091CC029091CD020A979CF181E08093EB
:10545000D2028093AA039981911101C080E08093C8
:10546000AB038091A90310E0882329F00E94271242
:1054700011E0811112E08091AB03882309F4D3C2BB
:105480000E9427128111D1C282E0182B0E94DF13E3
:105490006B017C01DC01CB018C7FBC01CD01612B58
:1054A000C616D706E806F90611F00E940E130E94F0
:1054B0003F128091AB03882309F4F6CC0E940308C5
:1054C0006B017C018091D3029091D402A091D5020E
:1054D000B091D602A7019601281B390B4A0B5B0B32
:1054E000DA01C9010497A105B10580F119821A8278
:1054F0001B821C828E010F5F1F4F24E050E040E0B2
:1055000060E089E00E945C168823C1F069817A819D
:105510008091B0039091B1030E94BF0B9093B103AF
:105520008093B0036B817C818091B2039091B3032F
:105530000E94BF0B9093B3038093B203C092D30237
:10554000D092D402E092D502F092D6028091B503B7
:10555000882309F4A9CC8091B403898310E000E08A
:1055600020E0AE014F5F5F4F61E08AE00E945C1671
:10557000882309F499CC1092B50396CC87EB92E07E
:105580008ACE8CEA92E087CE82EA92E084CE8AE9E3
:1055900092E081CE80E992E07ECE89E892E07BCEF7
:1055A00084ED92E00E94520C78CE8F5F87CE880FF8
:1055B000880F880F8093680110926B01895F809338
:1055C000690183E080936C019FCEEFE9F2E080E215
:1055D000DF011D928A95E9F7E4E8F1E0FAABE9AB67
:1055E00060E871E038E8632E31E0732EE9A9FAA98A
:1055F000A191FAABE9ABFB018191BF01840F952F1B
:10560000911D9C0122533C4F3EA72DA7EA2FF0E0AD
:10561000E156FD4F90E080E027E0D22ED81AEE242C
:10562000E394082E01C0EE0C0A94EAF72DA43EA4E0
:1056300000E0D1011D911D011E212D2D201B277081
:10564000C22E022E000C330BB12F01C0BB0FCA9427
:10565000EAF7CB2E3195219531092770332701C008
:1056600016952A95EAF7C12A1081C12AC0820F5FD8
:105670000830F9F6019631968830910569F6E9A966
:10568000FAA96E167F0609F0B1CF04E610E020E219
:1056900030E04FE952E053CE83E08093E9008091FF
:1056A000E80082FF8ECE8091E80090E085FF05C083
:1056B0000E948706882399F091E08091E8008B771B
:1056C0008093E800992309F47CCEE981E150E3312D
:1056D00008F080C0F0E0EB52FE4C0C94383100E250
:1056E00010E09E012F5F3F4F79018091E80085FD1A
:1056F0000AC08091E8008B778093E8000E948706BB
:10570000882399F3D9CF8091F100D7018D937D0142
:105710000150110951F7D0CF1A828AE08B8310C053
:105720008A818230A1F18330A9F1813009F052C021
:105730000E9403080E943E316B837C838D839E838D
:1057400080919E03843009F03CCE1091E9001F70D7
:105750009091EC00892F817090FD80E8182B82E0F9
:105760008093E9008091E80080FF0DC050E040E0A8
:1057700060E270E0CE0101960E94B8068091E800D8
:105780008E778093E8001F701093E9001ACE0E9474
:10579000DF13D0CFFE013396ABA5BCA58D91BCA77E
:1057A000ABA7AFA5B8A99D91B8ABAFA7892381934B
:1057B0002BA53CA52C5C324079F7C2CF8A81823080
:1057C00049F46B817C818D819E810E943E310E94D3
:1057D0000E13B6CF8FEF8983B3CF4C816B818A8153
:1057E0000E943C139827892798279E838D83A8CFF2
:1057F0002D813E813227232732274C816B818A817C
:105800000E94B0129DCF0E94D6129ACF8A81813811
:1058100009F1A8F4803809F093CF8B8156E9859F70
:10582000C00111246FEF70E00E94B130462F20E0DC
:105830006091800380917F030E94141481CF82388D
:10584000E9F0833809F07CCF20E0409181036C813E
:105850008B81F2CF60E08B810E945E158B8181117C
:1058600003C00E94A8116CCF80917E038160809359
:105870007E0360E086950E945E1562CF8B818093E7
:1058800082035ECF8A818138E1F078F4803809F0B4
:1058900057CF80918103AFEF8A9FC001112466E941
:1058A00070E00E94B1306B834BCF823891F0833827
:1058B00009F046CF80917F038B83809180038C8396
:1058C0003FCF80917E0380FF02C0869527CF80E086
:1058D00025CF8091820322CF60917E0370917F0358
:1058E00080918003909181030E94011429CF80E16F
:1058F0008A8326CFB1E0BA8389E310CFCA80DB80E8
:10590000DC24CD24DC248E010F5F1F4FEC80E00EE1
:10591000F12EF11CC60189539D4FE016F10609F4E2
:105920000FCFE9E3CE16E1E0DE0658F40E946431C1
:10593000D80114968C93FFEFCF1ADF0A0F5F1F4F29
:10594000E9CFF8011482F7CF0A811B8110270127C4
:1059500010279E012F5F3F4F6901EC80E00EF12E72
:10596000F11CC80189539D4FE016F10609F4E8CEF9
:10597000093331E0130728F4D60114966C910E9484
:105980007831BFEFCB1ADB0A0F5F1F4FEACF0E94BF
:10599000A012D6CE87E0ACCFCA80DB80DC24CD2439
:1059A000DC248E010F5F1F4FEC80E00EF12EF11C06
:1059B000C6018796E016F10609F4C2CEE0EACE16DB
:1059C000E2E0DE0658F40E946431D80114968C930C
:1059D000FFEFCF1ADF0A0F5F1F4FEACFF8011482E3
:1059E000F7CF0A811B811027012710279E012F5F07
:1059F0003F4F6901EC80E00EF12EF11CC801879643
:105A0000E016F10609F49CCE003A32E0130728F4C0
:105A1000D60114966C910E947831BFEFCB1ADB0A45
:105A20000F5F1F4FEBCF80E030CD81E02ECD09BD61
:105A300019BD09B400FEFDCF8091D8008F7D809301
:105A4000D8008091E00082608093E0008091E000C7
:105A500081FDFCCF109291030E94BF0CD4CA289AFA
:105A6000219A229A23982B9880E58CBD08959091D5
:105A700073019F3F09F071C08F3F09F46EC061113F
:105A800044C01092D7059091D705423009F441C027
:105A9000433009F442C094604130E1F141E050E00C
:105AA00042175307E0F19091D7054031510509F4B1
:105AB00052C0C0F54230510509F446C04830510586
:105AC00009F446C09CB52091D705922B9CBD9091BE
:105AD000D605992319F09DB591609DBD8093730102
